:020000020000FC
:100000000C94BA020C9423030C9429030C9430032F
:040010000C94320317
:100038000C9435033090008037FCFCCF03D000933C
:100048000080089500D0000008952D3069F12A300D
:10005800A9F10091008007FDFCCFF4DF209300C0D8
:10006800089501E0E7CF02E0E5CF00E1E3CF04E146
:10007800E1CF08E1DFCF0CE1DDCF0DE0DBCF0CE015
:10008800D9CF0EE0D7CF0CE0D5CF05B7006C05BFB0
:1000980001E0D0DF06E0CEDF0CE0CCDF08E3CADF0A
:1000A8000895022F0068C6CF0091008007FDFCCF9D
:1000B80000740068C7DF0093008008952F9320E440
:1000C800F0DF2F910895FF91EF91EE0FFF1FAF938F
:1000D800BF93C8953196002021F04AF0002D17D023
:1000E800F8CF3196F695E795BF91AF91099400FA4C
:1000F800002DC895A02DA03610F0B2E001C0BB2796
:100108003196043879F0053881F015C0E2CF2F9385
:10011800FF93EF93E42DF52D202F0995EF91FF9193
:100128002F9108950C91F3DFD4CF0D91002309F49A
:10013800D0CFEDDFFACF5F934F933F932F939F93E9
:100148008F937F936F932D913D914D915D9106FD16
:1001580006C005FD0FC004FD10C003FD19C06AE00C
:10016800702F76957770729580E0902F92959370A6
:1001780093951AC062E094E003C060E194E000C087
:10018800702F7695777009F478E0729580E00CC04E
:100198006AE0C895802D3196C895702D3196902FBC
:1001A80095959370939500C0943081F0933051F0F9
:1001B800923021F0332716F427FD3FEF442716F439
:1001C80037FD4FEF552716F447FD5FEF09D06F91C4
:1001D8007F918F919F912F913F914F915F9179CF0F
:1001E800CF92BF92AF929F928F92BB18AA24992464
:1001F800882486F4E89455236AF46894772309F0F0
:10020800705150954095309520950FEF201B300B7D
:10021800400B500B882351F05595479537952795F6
:10022800B794A794979487948A95B1F77F9372951A
:100238007F700EE20F9345D00C2D30D00F9300271E
:10024800201730074007500729F07723A1F37A9544
:1002580091F707C0772329F07A9519F000E257DF64
:10026800F9CF16F40DE253DF0F910E3211F04FDF84
:10027800FBCF7F917F70772359F049DF282D392DE7
:100288004A2D5B2D11D00C2D09D041DF7A95D1F77D
:100298008F909F90AF90BF90CF9008950A3010F440
:1002A800005D0895095A0895CC2400E2889420FD41
:1002B800C60EC79457954795379527950A95B1F770
:1002C8000895CC2400E2221F331F441F551FCC1C65
:1002D800C61A08F4C60E0A95B1F7221F331F441F29
:1002E800551F509540953095209508950A95000022
:1002F8000000000000000000C9F70895C598BD98E7
:100308000895BD9A00EFF2DFBD9803E2EFDF06B370
:1003180005FB0DECEBDF0895BD9A0CE1E7DFBD9816
:1003280002E0E4DF06B305FB01E0E0DF0895BD9AD3
:1003380001E0DCDFBD980EE1D9DF06B305FB01E083
:10034800D5DF0895BD9A01E0D1DFBD9807E0CEDF83
:1003580006B305FB07E1CADF08953F9338E0279508
:1003680010F4E5DF01C0D8DF3A95C9F73F91089549
:100378003F9338E02795E6DF27F93A95D9F73F917B
:10038800089509E148E0279508F4302730FB3795B0
:1003980037F94A95C1F7089500E801BB089508E0C8
:1003A80027FD06C03324979A32BA0000000004C023
:1003B800979A000000009798220F0A9589F708E09D
:1003C80037FD06C03324979A32BA0000000004C0F3
:1003D800979A000000009798330F0A9589F708E06C
:1003E80047FD06C03324979A32BA0000000004C0C3
:1003F800979A000000009798440F0A9589F7089586
:10040800979801E4302E01E03A94F1F73A940A956E
:10041800D9F70895392E330C330C330C830D089516
:10042800082F000F382E030DE0E0F4E0E00F33242E
:10043800F31D08952F933F9314DE13DE09E2402E37
:1004480000E0502E40DE486F6D65000020910001ED
:1004580020FDE2D009E6302E05E03A94F1F73A940F
:100468000A95D9F7362D303041F33F912F910895F1
:100478002F933F93F6DDF5DD09E2402E00E0502E84
:1004880022DE47616D6531002091000120FDC4D056
:1004980009E6302E05E03A94F1F73A940A95D9F72F
:1004A800362D313041F33F912F9108952F933F938B
:1004B800D8DDD7DD09E2402E00E0502E04DE47618A
:1004C8006D6532002091000120FDA6D009E6302E8E
:1004D80005E03A94F1F73A940A95D9F7362D323077
:1004E80041F33F912F9108952F933F93BADDB9DDE2
:1004F80009E2402E00E0502EE6DD47616D653300CD
:100508002091000120FD88D009E6302E05E03A94BC
:10051800F1F73A940A95D9F7362D333041F33F91E4
:100528002F9108952F939DDD9CDD2091000120FDE2
:1005380073D0209101013091020109E2402E00E0C0
:10054800502EC1DD446F63746F72208B12044243D6
:10055800000004E1302E07E13A94F1F73A940A9545
:10056800D9F7262D243001F32F9108950FEF0DBFF1
:1005780000E10EBF8ADDC2DE889889988A988B9838
:10058800909A919A929A939A0091610000680093C8
:10059800610000916200006800936200979800EF84
:1005A8000DBD0EEB0CBD05E00EBD04E007BF0AEA69
:1005B80000936A000FE009BF7894EEDE00270093ED
:1005C800030114D06624062D003011F433DFFBCF6D
:1005D800013011F44DDFF7CF023011F467DFF3CFAC
:1005E800033011F481DFEFCF9DDFEDCF0F9389DE6C
:1005F8002CECB3DE24E4B1DE0F9108950F9381DE75
:100608002CECABDE2EEBA9DEB3DE20930101B0DECD
:10061800209302010F910895009100010E7F00932D
:10062800000100910301002329F0E8DF002700936F
:1006380003010895DBDF01E000930301089563944B
:1006480004E0601608F066241895662019F403E0A3
:10065800602E18956A9418956624189504E0602E03
:10066800189500EF0DBD0EEB0CBD0091620010E86F
:1006780001270093620000910001016000930001CE
:020688001895C3
:00000001FF
