:020000020000FC
:100000000C944F050C94BB050C94C3050C94CD05C2
:040010000C94CF0578
:100038000C94D4053090008037FCFCCF03D000939B
:100048000080089500D0000008952D3069F12A300D
:10005800A9F10091008007FDFCCFF4DF209300C0D8
:10006800089501E0E7CF02E0E5CF00E1E3CF04E146
:10007800E1CF08E1DFCF0CE1DDCF0DE0DBCF0CE015
:10008800D9CF0EE0D7CF0CE0D5CF05B7006C05BFB0
:1000980001E0D0DF06E0CEDF0CE0CCDF08E3CADF0A
:1000A8000895022F0068C6CF0091008007FDFCCF9D
:1000B80000740068C7DF0093008008952F9320E440
:1000C800F0DF2F910895FF91EF91EE0FFF1FAF938F
:1000D800BF93C8953196002021F04AF0002D17D023
:1000E800F8CF3196F695E795BF91AF91099400FA4C
:1000F800002DC895A02DA03610F0B2E001C0BB2796
:100108003196043879F0053881F015C0E2CF2F9385
:10011800FF93EF93E42DF52D202F0995EF91FF9193
:100128002F9108950C91F3DFD4CF0D91002309F49A
:10013800D0CFEDDFFACF5F934F933F932F939F93E9
:100148008F937F936F932D913D914D915D9106FD16
:1001580006C005FD0FC004FD10C003FD19C06AE00C
:10016800702F76957770729580E0902F92959370A6
:1001780093951AC062E094E003C060E194E000C087
:10018800702F7695777009F478E0729580E00CC04E
:100198006AE0C895802D3196C895702D3196902FBC
:1001A80095959370939500C0943081F0933051F0F9
:1001B800923021F0332716F427FD3FEF442716F439
:1001C80037FD4FEF552716F447FD5FEF09D06F91C4
:1001D8007F918F919F912F913F914F915F9179CF0F
:1001E800CF92BF92AF929F928F92BB18AA24992464
:1001F800882486F4E89455236AF46894772309F0F0
:10020800705150954095309520950FEF201B300B7D
:10021800400B500B882351F05595479537952795F6
:10022800B794A794979487948A95B1F77F9372951A
:100238007F700EE20F9345D00C2D30D00F9300271E
:10024800201730074007500729F07723A1F37A9544
:1002580091F707C0772329F07A9519F000E257DF64
:10026800F9CF16F40DE253DF0F910E3211F04FDF84
:10027800FBCF7F917F70772359F049DF282D392DE7
:100288004A2D5B2D11D00C2D09D041DF7A95D1F77D
:100298008F909F90AF90BF90CF9008950A3010F440
:1002A800005D0895095A0895CC2400E2889420FD41
:1002B800C60EC79457954795379527950A95B1F770
:1002C8000895CC2400E2221F331F441F551FCC1C65
:1002D800C61A08F4C60E0A95B1F7221F331F441F29
:1002E800551F509540953095209508950A95000022
:1002F8000000000000000000C9F70895C598BD98E7
:100308000895F894BD9A00EFF1DFBD9803E2EEDF9F
:1003180006B305FB0DECEADF78940895F894BD9ACE
:100328000CE1E4DFBD9802E0E1DF06B305FB01E084
:10033800DDDF78940895F894BD9A01E0D7DFBD9881
:100348000EE1D4DF06B305FB01E0D0DF7894089511
:10035800F894BD9A01E0CADFBD9807E0C7DF06B38D
:1003680005FB07E1C3DF789408953F9338E02795AC
:1003780010F4E1DF01C0D2DF3A95C9F73F91089543
:100388003F9338E02795E4DF27F93A95D9F73F916D
:10039800089509E148E0279508F4302730FB3795A0
:1003A80037F94A95C1F7089500E801BB08953F92CF
:1003B8000F9308E027FD06C03324979A32BA00004D
:1003C800000004C0979A000000009798220F0A9531
:1003D80089F708E037FD06C03324979A32BA00003F
:1003E800000004C0979A000000009798330F0A9500
:1003F80089F708E047FD06C03324979A32BA00000F
:10040800000004C0979A000000009798440F0A95CE
:1004180089F70F913F900895979801E4302E01E0F5
:100428003A94F1F73A940A95D9F70895392E330C8E
:10043800330C330C830D0895082F000F382E030D4D
:10044800E0E0F4E0E00F3324F31D089502B10F78E3
:1004580002B903B1006703B90895E89411B11077A0
:1004680020900401121511F4989408951093040132
:100478002126989426FC20C024FE089516FF0BC060
:1004880014FD04C0239515FF225003C0239515FDC4
:1004980022509894089514FD04C0639515FF625086
:1004A80003C0639515FD625018940895022FD5DF97
:1004B800122F101BF12E089516FD02C0689408959E
:1004C80008956F93EF93FF93E0E0F4E060E42193E5
:1004D800319341936A95D9F7E0E0F4E000E4002E07
:1004E800219131914191F89462DF78940A94C1F78F
:1004F80093DFFF91EF916F910895B3DD09E2402EEC
:1005080000E0502EE0DD484F4D4500002FE030E080
:1005180040E019D0E62C00E0E016A1F402E3302E0A
:1005280001E00F933F9200E3302E06E03A94F1F792
:100538003A940A95D9F73F900F913A9491F70A9512
:1005480081F7E8CF08956F93EF93FF93E0E0F4E02D
:1005580060E42193319341936A95D9F781E091E062
:1005680065DF6ADF11921192108282E091E05EDF0E
:1005780063DF11921192108285E091E057DF5CDF12
:1005880011921192108286E091E050DF55DF1192AE
:100598001192108281E092E049DF4EDF11921192B0
:1005A800108282E092E042DF47DF119211921082BE
:1005B80085E092E03BDF40DF11921192108286E0E5
:1005C80092E034DF39DF11921192108281E094E0D9
:1005D8002DDF32DF11921192108286E094E026DF3F
:1005E8002BDF11921192108282E095E01FDF24DF49
:1005F80011921192108283E095E018DF1DDF1192AD
:100608001192108284E095E011DF16DF11921192A9
:10061800108285E095E00ADF0FDF119211921082B7
:10062800E0E0F4E000E4002E219131914191F8944A
:10063800BEDE78940A94C1F7EFDEFF91EF916F91D7
:1006480008950FDD09E2402E00E0502E3CDD534EA8
:10065800414B4500FBDE02D044D129C0E5E0F1E082
:1006680060E40FEF01936A95E1F7E5E0F1E00AE154
:1006780001930BE101930CE1008302E00093450133
:1006880000270093460103E00093470101E000932F
:1006980048010DE20093490100270093520100939D
:1006A80053012227662703B100930401089584EFBC
:1006B80091E01ED001E0302E01E00F933F9200E35D
:1006C800302E06E03A94F1F73A940A95D9F73F901C
:1006D8000F913A9491F70A9581F7019751F756D0FF
:1006E80000D184EF91E0E62C01E0E01611F30895C3
:1006F8009F938F932F933F934F935F936F937F9322
:10070800D5DE3F2D332309F438C0509148013323F7
:1007180032F0452F4395443040F0442706C0452F1A
:10072800442311F443E001C04A95652F6E5F63705E
:10073800461719F170915201872F83958770609140
:1007480053018617D1F0EAE4F1E0E70F08F4F395D6
:100758004083809352016091530170915201671751
:1007680061F0EAE4F1E0E60F08F4F395408163955F
:10077800677060935301409348017F916F915F9137
:100788004F913F912F918F919F910895209148010A
:1007980030914501E5E0F1E0E30F08F4F39540817D
:1007A800542F5770642F669566956695677021304B
:1007B80041F0233051F0203061F06395683061F4E6
:1007C80039C05395583041F435C0552399F15A959D
:1007D80003C0662379F16A95462F440F440F440FEE
:1007E800450F709149017F3F71F0471761F47FEF22
:1007F800709349012FD080914701803421F083956F
:100808008093470108C0509146015395503408F031
:10081800552750934601309145013395303408F0FF
:10082800332730934501E5E0F1E0E30F08F4F39551
:100838004083089516DC09E2402E00E0502E43DC88
:1008480047414D45204F56455200262D01E02017BF
:10085800E1F30895AF939F938F937F936F935F9383
:100868004F933F932F93222778E082B7A4B18A272A
:1008780030914501830F982F877096959695969598
:100888009770492F440F440F440F480F6091460159
:10089800809147015527581781F0162F150F1034EE
:1008A80008F01054E5E0F1E0E10F08F4F395108149
:1008B800141711F05395EFCF03C0222309F4242F06
:1008C8007A9599F6222309F4242F209349012F9130
:1008D8003F914F915F916F917F918F919F91AF91D0
:1008E8000895222733274427ECDD70914601E090D4
:1008F800470160E06E1521F1872F860F803408F0DC
:100908008054E5E0F1E0E80F08F4F3950081802FCA
:100918008770902F969596959695977087DD8CDDC4
:100928001E2D1A95611721F02FE03327442703C0A5
:10093800222733274FE02193319340836395DACF01
:10094800009149010F3F79F0802F8770902F96957D
:100958009695969597706ADD6FDD22273FE04427CC
:10096800219331934083E0E0F4E000E4002E2191EC
:1009780031914191F8941BDD78940A94C1F74CDDCC
:1009880008956FDB09E2402E00E0502E9CDB4741C2
:100998004D452032000020E030E04FE092DDE62CAB
:1009A80002E0E016A1F402E3302E01E00F933F923B
:1009B80000E3302E06E03A94F1F73A940A95D9F715
:1009C8003F900F913A9491F70A9581F7E8CF0895EF
:1009D80048DB09E2402E00E0502E75DB47414D45CB
:1009E8002033000028E038E040E06BDDE62C03E02F
:1009F800E016A1F402E3302E01E00F933F9200E3EA
:100A0800302E06E03A94F1F73A940A95D9F73F90D8
:100A18000F913A9491F70A9581F7E8CF08952F93AB
:100A280020DB09E2402E00E0502E4DDB446F63745A
:100A38006F72000022273327442743DD20910001ED
:100A480020FD80D020910101309102010ADB09E2EA
:100A5800402E00E0502E37DB446F63746F72208B9A
:100A68001204424300000AEF302E01E00F933F9238
:100A780000E3302E06E03A94F1F73A940A95D9F754
:100A88003F900F913A9491F70A9581F7262D2430DB
:100A9800A9F22F9108950FEF0DBF00E10EBFF5DA0F
:100AA8002DDCD4DC889889988A988B98909A919AAA
:100AB800929A939A79DC00E80093610000E8009329
:100AC8006200979800EF0DBD0EEB0CBD05E00EBD62
:100AD80004E007BF0AEA00936A000FE009BF7894B0
:100AE80000270093030118D06624E62C00E0E016E6
:100AF80011F403DDFACF01E0E01611F4A2DDF5CF21
:100B080002E0E01611F43DDFF0CF03E0E01611F447
:100B18005FDFEBCF84DFE9CFEF92F3DB2CEC25DC52
:100B280024E423DCEF900895EF92EBDB2CEC1DDC42
:100B38002EEB1BDC25DC2093010122DC2093020133
:100B4800EF900895E09000010EEFE022E09200019E
:100B5800E0900301EE2029F0E7DFEE24E0920301A4
:100B68000895DADF01E0E02EE092030108950F9383
:100B7800639404E0601608F066240F9118950F93AB
:100B8800662021F403E0602E0F9118956A940F9166
:100B98001895662418950F9304E0602E0F91189508
:100BA8000F931F9300EF0DBD0EEB0CBDE09062009C
:100BB80010E8E126E0926200E090000101E0E02AFE
:0A0BC800E09200011F910F911895B3
:00000001FF
