:020000020000FC
:100000000C945E040C94C8040C94D0040C94DA0490
:040010000C94DC046C
:100038000C94E1043090008037FCFCCF03D000938F
:100048000080089500D0000008952D3069F12A300D
:10005800A9F10091008007FDFCCFF4DF209300C0D8
:10006800089501E0E7CF02E0E5CF00E1E3CF04E146
:10007800E1CF08E1DFCF0CE1DDCF0DE0DBCF0CE015
:10008800D9CF0EE0D7CF0CE0D5CF05B7006C05BFB0
:1000980001E0D0DF06E0CEDF0CE0CCDF08E3CADF0A
:1000A8000895022F0068C6CF0091008007FDFCCF9D
:1000B80000740068C7DF0093008008952F9320E440
:1000C800F0DF2F910895FF91EF91EE0FFF1FAF938F
:1000D800BF93C8953196002021F04AF0002D17D023
:1000E800F8CF3196F695E795BF91AF91099400FA4C
:1000F800002DC895A02DA03610F0B2E001C0BB2796
:100108003196043879F0053881F015C0E2CF2F9385
:10011800FF93EF93E42DF52D202F0995EF91FF9193
:100128002F9108950C91F3DFD4CF0D91002309F49A
:10013800D0CFEDDFFACF5F934F933F932F939F93E9
:100148008F937F936F932D913D914D915D9106FD16
:1001580006C005FD0FC004FD10C003FD19C06AE00C
:10016800702F76957770729580E0902F92959370A6
:1001780093951AC062E094E003C060E194E000C087
:10018800702F7695777009F478E0729580E00CC04E
:100198006AE0C895802D3196C895702D3196902FBC
:1001A80095959370939500C0943081F0933051F0F9
:1001B800923021F0332716F427FD3FEF442716F439
:1001C80037FD4FEF552716F447FD5FEF09D06F91C4
:1001D8007F918F919F912F913F914F915F9179CF0F
:1001E800CF92BF92AF929F928F92BB18AA24992464
:1001F800882486F4E89455236AF46894772309F0F0
:10020800705150954095309520950FEF201B300B7D
:10021800400B500B882351F05595479537952795F6
:10022800B794A794979487948A95B1F77F9372951A
:100238007F700EE20F9345D00C2D30D00F9300271E
:10024800201730074007500729F07723A1F37A9544
:1002580091F707C0772329F07A9519F000E257DF64
:10026800F9CF16F40DE253DF0F910E3211F04FDF84
:10027800FBCF7F917F70772359F049DF282D392DE7
:100288004A2D5B2D11D00C2D09D041DF7A95D1F77D
:100298008F909F90AF90BF90CF9008950A3010F440
:1002A800005D0895095A0895CC2400E2889420FD41
:1002B800C60EC79457954795379527950A95B1F770
:1002C8000895CC2400E2221F331F441F551FCC1C65
:1002D800C61A08F4C60E0A95B1F7221F331F441F29
:1002E800551F509540953095209508950A95000022
:1002F8000000000000000000C9F70895C598BD98E7
:100308000895BD9A00EFF2DFBD9803E2EFDF06B370
:1003180005FB0DECEBDF0895BD9A0CE1E7DFBD9816
:1003280002E0E4DF06B305FB01E0E0DF0895BD9AD3
:1003380001E0DCDFBD980EE1D9DF06B305FB01E083
:10034800D5DF0895BD9A01E0D1DFBD9807E0CEDF83
:1003580006B305FB07E1CADF08953F9338E0279508
:1003680010F4E5DF01C0D8DF3A95C9F73F91089549
:100378003F9338E02795E6DF27F93A95D9F73F917B
:10038800089509E148E0279508F4302730FB3795B0
:1003980037F94A95C1F7089500E801BB08953F92DF
:1003A8000F9308E027FD06C03324979A32BA00005D
:1003B800000004C0979A000000009798220F0A9541
:1003C80089F708E037FD06C03324979A32BA00004F
:1003D800000004C0979A000000009798330F0A9510
:1003E80089F708E047FD06C03324979A32BA00001F
:1003F800000004C0979A000000009798440F0A95DF
:1004080089F70F913F900895979801E4302E01E005
:100418003A94F1F73A940A95D9F70895392E330C9E
:10042800330C330C830D0895082F000F382E030D5D
:10043800E0E0F4E0E00F3324F31D089502B10F78F3
:1004480002B903B1006703B90895E89411B11077B0
:1004580020900401121511F4989408951093040142
:100468002126989426FC20C024FE089516FF0BC070
:1004780014FD04C0239515FF225003C0239515FDD4
:1004880022509894089514FD04C0639515FF625096
:1004980003C0639515FD625018940895022FD5DFA7
:1004A800122F101B312E089516FD02C0689408956E
:1004B80008952F932F933F934F933F920F938F93CA
:1004C8009F93FF93EF93E0E0F4E020E421933193CE
:1004D80041932A95D9F7EF91FF919F918F910F91B1
:1004E8003F904F913F912F912F9108952F933F93D4
:1004F8004F933F920F938F939F93FF93EF93EF93B5
:10050800FF930F933F928ADF8FDF219331934083CC
:100518003F900F91FF91EF91EF91FF919F918F91F4
:100528000F913F904F913F912F9108952F933F93B3
:100538004F933F920F938F939F93FF93EF93E0E036
:10054800F4E020E4219131914191F89428DF7894E6
:100558002A95C1F759DFEF91FF919F918F910F91E4
:100568003F904F913F912F91089508EC302E01E074
:100578000F933F9200E3302E06E03A94F1F73A9455
:100588000A95D9F73F900F913A9491F70A9581F718
:1005980002E3302E01E00F933F9200E3302E06E095
:1005A8003A94F1F73A940A95D9F73F900F913A9413
:1005B80091F70A9581F708952F933F9352DD03D061
:1005C8003F912F9108954DDD09E2402E00E0502E15
:1005D8007ADD486F6D6500002F933F934F933F92EC
:1005E8000F938F939F93FF93EF9323E033E043E0C0
:1005F80060DF9CDFEF91FF919F918F910F913F906A
:100608004F913F912F9104ED302E09E03A94F1F784
:100618003A940A95D9F72091000120FDA2D109E268
:10062800302E09E63A94F1F73A940A95D9F7362D1F
:10063800303009F4C8CF08952F933F9312DD03D0CB
:100648003F912F9108950DDD09E2402E00E0502ED4
:100658003ADD536E616B650000002F933F934F9313
:100668003F920F938F939F93FF93EF9320E030E097
:1006780040E01FDF20E130E040E093E080E036DF3B
:1006880083958830E0F352DFEF91FF919F918F912E
:100698000F913F904F913F912F9104ED302E09E03B
:1006A8003A94F1F73A940A95D9F72091000120FD80
:1006B80058D109E2302E09E63A94F1F73A940A95AE
:1006C800D9F7362D313009F4BECF08952F933F93D3
:1006D800C8DC03D03F912F910895C3DC09E2402E76
:1006E80000E0502EF0DC47616D65320000002F936A
:1006F8003F934F933F920F938F939F93FF93EF9363
:1007080020E030E040E0D5DE20E030E040E190E05D
:10071800892FECDE87E0891BE9DE93959830C0F3DA
:1007280005DFEF91FF919F918F910F913F904F912E
:100738003F912F9104ED302E09E03A94F1F73A9465
:100748000A95D9F72091000120FD0BD109E2302E3E
:1007580009E63A94F1F73A940A95D9F7362D3230EA
:1007680009F4BBCF08952F933F937BDC03D03F91CF
:100778002F91089576DC09E2402E00E0502EA3DC8C
:1007880047616D65330000002F933F934F933F926D
:100798000F938F939F93FF93EF9320E030E040E017
:1007A80088DE20E130E040E092E082E09FDE839541
:1007B8008530E0F393959530C0F3B8DEEF91FF9163
:1007C8009F918F910F913F904F913F912F9104ED01
:1007D800302E09E03A94F1F73A940A95D9F7209126
:1007E800000120FDBED009E2302E09E63A94F1F767
:1007F8003A940A95D9F7362D333009F4BBCF0895CA
:100808002F932FDC02D02F9108952091000120FD15
:10081800A8D027DC209101013091020109E2402E85
:1008280000E0502E50DC446F63746F72208B12040A
:10083800424300002F933F934F933F920F938F9320
:100848009F93FF93EF9320E030E040E032DE609129
:1008580001016695603408F06FE387E097E0943013
:1008680018F020E030E102C020E130E040E03EDE58
:100878009A956A95A2F75ADEEF91FF919F918F9111
:100888000F913F904F913F912F9104ED302E09E049
:100898003A94F1F73A940A95D9F709E2302E09E625
:1008A8003A94F1F73A940A95D9F7262D243009F4A9
:1008B800ACCF08950FEF0DBF00E10EBFE6DB1EDDE4
:1008C800889889988A988B98909A919A929A939AEC
:1008D80063DD00916100006800936100009162008F
:1008E800006800936200979800EF0DBD0EEB0CBDF9
:1008F80005E00EBD04E007BF0AEA00936A000FE0B6
:1009080009BF789449DD00270093030114D06624B9
:10091800062D003011F450DEFBCF013011F48CDECF
:10092800F7CF023011F4D2DEF3CF033011F41BDF1E
:10093800EFCF66DFEDCF0F93E4DC2CEC0EDD24E483
:100948000CDD0F9108950F93DCDC2CEC06DD2EEB0B
:1009580004DD0EDD209301010BDD209302010F91D0
:100968000895009100010E7F00930001009103019A
:10097800002329F0E8DF0027009303010895DBDF57
:1009880001E00093030108950F93639404E0601657
:1009980008F066240F9118950F93662021F403E060
:1009A800602E0F9118956A940F91189566241895E2
:1009B8000F9304E0602E0F9118950F931F9300EF8B
:1009C8000DBD0EEB0CBD0091620010E801270093ED
:1009D8006200009100010160009300011F910F91D6
:0209E800189560
:00000001FF
