:020000020000FC
:100000000C94A4030C940F040C9417040C94210476
:040010000C94230425
:100038000C9428043090008037FCFCCF03D0009348
:100048000080089500D0000008952D3069F12A300D
:10005800A9F10091008007FDFCCFF4DF209300C0D8
:10006800089501E0E7CF02E0E5CF00E1E3CF04E146
:10007800E1CF08E1DFCF0CE1DDCF0DE0DBCF0CE015
:10008800D9CF0EE0D7CF0CE0D5CF05B7006C05BFB0
:1000980001E0D0DF06E0CEDF0CE0CCDF08E3CADF0A
:1000A8000895022F0068C6CF0091008007FDFCCF9D
:1000B80000740068C7DF0093008008952F9320E440
:1000C800F0DF2F910895FF91EF91EE0FFF1FAF938F
:1000D800BF93C8953196002021F04AF0002D17D023
:1000E800F8CF3196F695E795BF91AF91099400FA4C
:1000F800002DC895A02DA03610F0B2E001C0BB2796
:100108003196043879F0053881F015C0E2CF2F9385
:10011800FF93EF93E42DF52D202F0995EF91FF9193
:100128002F9108950C91F3DFD4CF0D91002309F49A
:10013800D0CFEDDFFACF5F934F933F932F939F93E9
:100148008F937F936F932D913D914D915D9106FD16
:1001580006C005FD0FC004FD10C003FD19C06AE00C
:10016800702F76957770729580E0902F92959370A6
:1001780093951AC062E094E003C060E194E000C087
:10018800702F7695777009F478E0729580E00CC04E
:100198006AE0C895802D3196C895702D3196902FBC
:1001A80095959370939500C0943081F0933051F0F9
:1001B800923021F0332716F427FD3FEF442716F439
:1001C80037FD4FEF552716F447FD5FEF09D06F91C4
:1001D8007F918F919F912F913F914F915F9179CF0F
:1001E800CF92BF92AF929F928F92BB18AA24992464
:1001F800882486F4E89455236AF46894772309F0F0
:10020800705150954095309520950FEF201B300B7D
:10021800400B500B882351F05595479537952795F6
:10022800B794A794979487948A95B1F77F9372951A
:100238007F700EE20F9345D00C2D30D00F9300271E
:10024800201730074007500729F07723A1F37A9544
:1002580091F707C0772329F07A9519F000E257DF64
:10026800F9CF16F40DE253DF0F910E3211F04FDF84
:10027800FBCF7F917F70772359F049DF282D392DE7
:100288004A2D5B2D11D00C2D09D041DF7A95D1F77D
:100298008F909F90AF90BF90CF9008950A3010F440
:1002A800005D0895095A0895CC2400E2889420FD41
:1002B800C60EC79457954795379527950A95B1F770
:1002C8000895CC2400E2221F331F441F551FCC1C65
:1002D800C61A08F4C60E0A95B1F7221F331F441F29
:1002E800551F509540953095209508950A95000022
:1002F8000000000000000000C9F70895C598BD98E7
:100308000895BD9A00EFF2DFBD9803E2EFDF06B370
:1003180005FB0DECEBDF0895BD9A0CE1E7DFBD9816
:1003280002E0E4DF06B305FB01E0E0DF0895BD9AD3
:1003380001E0DCDFBD980EE1D9DF06B305FB01E083
:10034800D5DF0895BD9A01E0D1DFBD9807E0CEDF83
:1003580006B305FB07E1CADF08953F9338E0279508
:1003680010F4E5DF01C0D8DF3A95C9F73F91089549
:100378003F9338E02795E6DF27F93A95D9F73F917B
:10038800089509E148E0279508F4302730FB3795B0
:1003980037F94A95C1F7089500E801BB08953F92DF
:1003A8000F9308E027FD06C03324979A32BA00005D
:1003B800000004C0979A000000009798220F0A9541
:1003C80089F708E037FD06C03324979A32BA00004F
:1003D800000004C0979A000000009798330F0A9510
:1003E80089F708E047FD06C03324979A32BA00001F
:1003F800000004C0979A000000009798440F0A95DF
:1004080089F70F913F900895979801E4302E01E005
:100418003A94F1F73A940A95D9F70895392E330C9E
:10042800330C330C830D0895082F000F382E030D5D
:10043800E0E0F4E0E00F3324F31D089502B10F78F3
:1004480002B903B1006703B90895E89411B11077B0
:1004580020900401121511F4989408951093040142
:100468002126989426FC20C024FE089516FF0BC070
:1004780014FD04C0239515FF225003C0239515FDD4
:1004880022509894089514FD04C0639515FF625096
:1004980003C0639515FD625018940895022FD5DFA7
:1004A800122F101B312E089516FD02C0689408956E
:1004B80008956F93EF93FF93E0E0F4E060E42193F5
:1004C800319341936A95D9F7E0E0F4E000E4002E17
:1004D800219131914191F89462DF78940A94C1F79F
:1004E80093DFFF91EF916F910895BBDD09E2402EF4
:1004F80000E0502EE8DD484F4D4500002FE030E089
:1005080040E0D7DFE62C00E0E016A1F402E3302E4D
:1005180001E00F933F9200E3302E06E03A94F1F7A2
:100528003A940A95D9F73F900F913A9491F70A9522
:1005380081F7E8CF089595DD09E2402E00E0502EBE
:10054800C2DD534E414B45001DD03AD00895E62CEC
:1005580001E0E016B1F469D033D004EF302E02E0A8
:100568000F933F9200E3302E06E03A94F1F73A9465
:100578000A95D9F73F900F913A9491F70A9581F728
:10058800E6CF0895E5E0F1E060E40FEF01936A95A6
:10059800E1F7E5E0F1E00AE101930BE101930CE1F9
:1005A800008302E00093450100270093460103E021
:1005B8000093470101E00093480100934901089521
:1005C80022273327442775DFE09047015E2D5A958F
:1005D80060E06E15E1F0E5E0F1E0E60F08F4F39570
:1005E8000081802F8770902F9295977017DF1CDFFE
:1005F800651709F004C0222733274FE003C02FE016
:10060800332744272193319340836395E2CFE0E079
:10061800F4E000E4002E219131914191F894BFDE7D
:1006280078940A94C1F7F0DE089508951ADD09E276
:10063800402E00E0502E47DD47414D452032000056
:1006480020E030E04FE035DFE62C02E0E016A1F4D0
:1006580002E3302E01E00F933F9200E3302E06E0D4
:100668003A94F1F73A940A95D9F73F900F913A9452
:1006780091F70A9581F7E8CF0895F3DC09E2402E57
:1006880000E0502E20DD47414D452033000028E092
:1006980038E040E00EDFE62C03E0E016A1F402E3C8
:1006A800302E01E00F933F9200E3302E06E03A949B
:1006B800F1F73A940A95D9F73F900F913A9491F748
:1006C8000A9581F7E8CF08952F93CBDC09E2402EF5
:1006D80000E0502EF8DC446F63746F72000022272C
:1006E80033274427E6DE2091000120FD7FD02091AA
:1006F800010130910201B5DC09E2402E00E0502EE4
:10070800E2DC446F63746F72208B12044243000072
:100718000AEF302E01E00F933F9200E3302E06E0FF
:100728003A94F1F73A940A95D9F73F900F913A9491
:1007380091F70A9581F7262D2430A9F22F91089573
:100748000FEF0DBF00E10EBFA0DCD8DD88988998B7
:100758008A988B98909A919A929A939A1DDE00E8BB
:100768000093610000E800936200979800EF0DBDC8
:100778000EEB0CBD05E00EBD04E007BF0AEA0093CE
:100788006A000FE009BF789400270093030118D08E
:100798006624E62C00E0E01611F4A7DEFACF01E0AB
:1007A800E01611F4C8DEF5CF02E0E01611F43EDFE2
:1007B800F0CF03E0E01611F460DFEBCF85DFE9CF7F
:1007C800EF929FDD2CECC9DD24E4C7DDEF9008959E
:1007D800EF9297DD2CECC1DD2EEBBFDDC9DD209358
:1007E8000101C6DD20930201EF900895E090000119
:1007F8000EEFE022E0920001E0900301EE2029F0E4
:10080800E7DFEE24E09203010895DADF01E0E02E4D
:10081800E092030108950F93639404E0601608F0D2
:1008280066240F9118950F93662021F403E0602E3B
:100838000F9118956A940F911895662418950F933F
:1008480004E0602E0F9118950F931F9300EF0DBDD4
:100858000EEB0CBDE090620010E8E126E092620029
:10086800E090000101E0E02AE09200011F910F9161
:020878001895D1
:00000001FF
